S01200006D6173746572636F64652E73726563EB
S11300000C9434000C943E000C943E000C943E007E
S11300100C943E000C943E000C943E000C943E0064
S11300200C943E000C943E000C943E000C943E0054
S11300300C943E000C943E000C943E000C943E0044
S11300400C943E000C943E000C943E000C943E0034
S11300500C943E000C943E000C943E000C943E0024
S11300600C943E000C943E0011241FBECFEFD8E048
S1130070DEBFCDBF0E9440000C9460000C940000D1
S11300808AB184608AB980E090E001C0CE01CBB12E
S1130090C470D0E02097D1F3892BC1F785B18B7F51
S11300A085B981E090E00E94590085B1846085B9EA
S11300B0EDCF8EBD0DB407FEFDCF8EB590E0089553
S10700C0F894FFCFDE
S9030000FC
